{
  "_format": "hh-sol-artifact-1",
  "contractName": "WavePortal",
  "sourceName": "contracts/WavePortal.sol",
  "abi": [
    {
      "inputs": [],
      "stateMutability": "payable",
      "type": "constructor"
    },
    {
      "anonymous": false,
      "inputs": [
        {
          "indexed": true,
          "internalType": "address",
          "name": "from",
          "type": "address"
        },
        {
          "indexed": false,
          "internalType": "uint256",
          "name": "timestamp",
          "type": "uint256"
        },
        {
          "indexed": false,
          "internalType": "string",
          "name": "message",
          "type": "string"
        }
      ],
      "name": "NewWave",
      "type": "event"
    },
    {
      "inputs": [
        {
          "internalType": "address",
          "name": "",
          "type": "address"
        }
      ],
      "name": "addresses",
      "outputs": [
        {
          "internalType": "uint256",
          "name": "",
          "type": "uint256"
        }
      ],
      "stateMutability": "view",
      "type": "function"
    },
    {
      "inputs": [],
      "name": "getAllWaves",
      "outputs": [
        {
          "components": [
            {
              "internalType": "address",
              "name": "waver",
              "type": "address"
            },
            {
              "internalType": "string",
              "name": "message",
              "type": "string"
            },
            {
              "internalType": "uint256",
              "name": "timestamp",
              "type": "uint256"
            }
          ],
          "internalType": "struct WavePortal.Wave[]",
          "name": "",
          "type": "tuple[]"
        }
      ],
      "stateMutability": "view",
      "type": "function"
    },
    {
      "inputs": [
        {
          "internalType": "address",
          "name": "sender",
          "type": "address"
        }
      ],
      "name": "getSenderTotalWaves",
      "outputs": [
        {
          "internalType": "uint256",
          "name": "",
          "type": "uint256"
        }
      ],
      "stateMutability": "view",
      "type": "function"
    },
    {
      "inputs": [],
      "name": "getTotalWaves",
      "outputs": [
        {
          "internalType": "uint256",
          "name": "",
          "type": "uint256"
        }
      ],
      "stateMutability": "view",
      "type": "function"
    },
    {
      "inputs": [
        {
          "internalType": "string",
          "name": "_message",
          "type": "string"
        }
      ],
      "name": "wave",
      "outputs": [],
      "stateMutability": "nonpayable",
      "type": "function"
    }
  ],
  "bytecode": "0x60806040526200004f6040518060400160405280601e81526020017f57617665506f7274616c20434f4e5354525543544f522043414c4c45442e00008152506200005560201b620006201760201c565b620001e9565b620000f5816040516024016200006c919062000162565b6040516020818303038152906040527f41304fac000000000000000000000000000000000000000000000000000000007bffffffffffffffffffffffffffffffffffffffffffffffffffffffff19166020820180517bffffffffffffffffffffffffffffffffffffffffffffffffffffffff8381831617835250505050620000f860201b60201c565b50565b60008151905060006a636f6e736f6c652e6c6f679050602083016000808483855afa5050505050565b60006200012e8262000186565b6200013a818562000191565b93506200014c818560208601620001a2565b6200015781620001d8565b840191505092915050565b600060208201905081810360008301526200017e818462000121565b905092915050565b600081519050919050565b600082825260208201905092915050565b60005b83811015620001c2578082015181840152602081019050620001a5565b83811115620001d2576000848401525b50505050565b6000601f19601f8301169050919050565b61115780620001f96000396000f3fe608060405234801561001057600080fd5b50600436106100575760003560e01c8063449d46c01461005c57806382d38954146100785780639a2cdc08146100a8578063bd43a908146100c6578063fd866e8c146100e4575b600080fd5b61007660048036038101906100719190610a05565b610114565b005b610092600480360381019061008d91906109dc565b6103de565b60405161009f9190610d82565b60405180910390f35b6100b06103f6565b6040516100bd9190610d82565b60405180910390f35b6100ce610441565b6040516100db9190610c4b565b60405180910390f35b6100fe60048036038101906100f991906109dc565b610592565b60405161010b9190610d82565b60405180910390f35b60016000808282546101269190610e94565b9250508190555060018060003373ffffffffffffffffffffffffffffffffffffffff1673ffffffffffffffffffffffffffffffffffffffff168152602001908152602001600020600082825461017c9190610e94565b925050819055506101c36040518060400160405280601681526020017f257320776176656420772f206d6573736167652025730000000000000000000081525033836106b9565b600260405180606001604052803373ffffffffffffffffffffffffffffffffffffffff16815260200183815260200142815250908060018154018082558091505060019003906000526020600020906003020160009091909190915060008201518160000160006101000a81548173ffffffffffffffffffffffffffffffffffffffff021916908373ffffffffffffffffffffffffffffffffffffffff16021790555060208201518160010190805190602001906102829291906108bc565b506040820151816002015550503373ffffffffffffffffffffffffffffffffffffffff167f5f7e16dc676677766a70e9c5628aa6c54ddb8b6e5188e2ae1e1f17f1ffbea71642836040516102d7929190610d9d565b60405180910390a26000655af3107a400090504781111561032d576040517f08c379a000000000000000000000000000000000000000000000000000000000815260040161032490610d42565b60405180910390fd5b60003373ffffffffffffffffffffffffffffffffffffffff168260405161035390610c36565b60006040518083038185875af1925050503d8060008114610390576040519150601f19603f3d011682016040523d82523d6000602084013e610395565b606091505b50509050806103d9576040517f08c379a00000000000000000000000000000000000000000000000000000000081526004016103d090610d62565b60405180910390fd5b505050565b60016020528060005260406000206000915090505481565b60006104396040518060400160405280601781526020017f5765206861766520256420746f74616c20776176657321000000000000000000815250600054610758565b600054905090565b60606002805480602002602001604051908101604052809291908181526020016000905b8282101561058957838290600052602060002090600302016040518060600160405290816000820160009054906101000a900473ffffffffffffffffffffffffffffffffffffffff1673ffffffffffffffffffffffffffffffffffffffff1673ffffffffffffffffffffffffffffffffffffffff1681526020016001820180546104ee90610f68565b80601f016020809104026020016040519081016040528092919081815260200182805461051a90610f68565b80156105675780601f1061053c57610100808354040283529160200191610567565b820191906000526020600020905b81548152906001019060200180831161054a57829003601f168201915b5050505050815260200160028201548152505081526020019060010190610465565b50505050905090565b600080600160008473ffffffffffffffffffffffffffffffffffffffff1673ffffffffffffffffffffffffffffffffffffffff1681526020019081526020016000205490506106176040518060400160405280601781526020017f25732068617320776176656420256420617420796f752e00000000000000000081525084836107f4565b80915050919050565b6106b6816040516024016106349190610c6d565b6040516020818303038152906040527f41304fac000000000000000000000000000000000000000000000000000000007bffffffffffffffffffffffffffffffffffffffffffffffffffffffff19166020820180517bffffffffffffffffffffffffffffffffffffffffffffffffffffffff8381831617835250505050610893565b50565b6107538383836040516024016106d193929190610c8f565b6040516020818303038152906040527fe0e9ad4f000000000000000000000000000000000000000000000000000000007bffffffffffffffffffffffffffffffffffffffffffffffffffffffff19166020820180517bffffffffffffffffffffffffffffffffffffffffffffffffffffffff8381831617835250505050610893565b505050565b6107f0828260405160240161076e929190610d12565b6040516020818303038152906040527f9710a9d0000000000000000000000000000000000000000000000000000000007bffffffffffffffffffffffffffffffffffffffffffffffffffffffff19166020820180517bffffffffffffffffffffffffffffffffffffffffffffffffffffffff8381831617835250505050610893565b5050565b61088e83838360405160240161080c93929190610cd4565b6040516020818303038152906040527f07c81217000000000000000000000000000000000000000000000000000000007bffffffffffffffffffffffffffffffffffffffffffffffffffffffff19166020820180517bffffffffffffffffffffffffffffffffffffffffffffffffffffffff8381831617835250505050610893565b505050565b60008151905060006a636f6e736f6c652e6c6f679050602083016000808483855afa5050505050565b8280546108c890610f68565b90600052602060002090601f0160209004810192826108ea5760008555610931565b82601f1061090357805160ff1916838001178555610931565b82800160010185558215610931579182015b82811115610930578251825591602001919060010190610915565b5b50905061093e9190610942565b5090565b5b8082111561095b576000816000905550600101610943565b5090565b600061097261096d84610df2565b610dcd565b90508281526020810184848401111561098a57600080fd5b610995848285610f26565b509392505050565b6000813590506109ac8161110a565b92915050565b600082601f8301126109c357600080fd5b81356109d384826020860161095f565b91505092915050565b6000602082840312156109ee57600080fd5b60006109fc8482850161099d565b91505092915050565b600060208284031215610a1757600080fd5b600082013567ffffffffffffffff811115610a3157600080fd5b610a3d848285016109b2565b91505092915050565b6000610a528383610bc8565b905092915050565b610a6381610eea565b82525050565b610a7281610eea565b82525050565b6000610a8382610e33565b610a8d8185610e56565b935083602082028501610a9f85610e23565b8060005b85811015610adb5784840389528151610abc8582610a46565b9450610ac783610e49565b925060208a01995050600181019050610aa3565b50829750879550505050505092915050565b6000610af882610e3e565b610b028185610e72565b9350610b12818560208601610f35565b610b1b81611058565b840191505092915050565b6000610b3182610e3e565b610b3b8185610e83565b9350610b4b818560208601610f35565b610b5481611058565b840191505092915050565b6000610b6c603483610e83565b9150610b7782611069565b604082019050919050565b6000610b8f602683610e83565b9150610b9a826110b8565b604082019050919050565b6000610bb2600083610e67565b9150610bbd82611107565b600082019050919050565b6000606083016000830151610be06000860182610a5a565b5060208301518482036020860152610bf88282610aed565b9150506040830151610c0d6040860182610c18565b508091505092915050565b610c2181610f1c565b82525050565b610c3081610f1c565b82525050565b6000610c4182610ba5565b9150819050919050565b60006020820190508181036000830152610c658184610a78565b905092915050565b60006020820190508181036000830152610c878184610b26565b905092915050565b60006060820190508181036000830152610ca98186610b26565b9050610cb86020830185610a69565b8181036040830152610cca8184610b26565b9050949350505050565b60006060820190508181036000830152610cee8186610b26565b9050610cfd6020830185610a69565b610d0a6040830184610c27565b949350505050565b60006040820190508181036000830152610d2c8185610b26565b9050610d3b6020830184610c27565b9392505050565b60006020820190508181036000830152610d5b81610b5f565b9050919050565b60006020820190508181036000830152610d7b81610b82565b9050919050565b6000602082019050610d976000830184610c27565b92915050565b6000604082019050610db26000830185610c27565b8181036020830152610dc48184610b26565b90509392505050565b6000610dd7610de8565b9050610de38282610f9a565b919050565b6000604051905090565b600067ffffffffffffffff821115610e0d57610e0c611029565b5b610e1682611058565b9050602081019050919050565b6000819050602082019050919050565b600081519050919050565b600081519050919050565b6000602082019050919050565b600082825260208201905092915050565b600081905092915050565b600082825260208201905092915050565b600082825260208201905092915050565b6000610e9f82610f1c565b9150610eaa83610f1c565b9250827fffffffffffffffffffffffffffffffffffffffffffffffffffffffffffffffff03821115610edf57610ede610fcb565b5b828201905092915050565b6000610ef582610efc565b9050919050565b600073ffffffffffffffffffffffffffffffffffffffff82169050919050565b6000819050919050565b82818337600083830152505050565b60005b83811015610f53578082015181840152602081019050610f38565b83811115610f62576000848401525b50505050565b60006002820490506001821680610f8057607f821691505b60208210811415610f9457610f93610ffa565b5b50919050565b610fa382611058565b810181811067ffffffffffffffff82111715610fc257610fc1611029565b5b80604052505050565b7f4e487b7100000000000000000000000000000000000000000000000000000000600052601160045260246000fd5b7f4e487b7100000000000000000000000000000000000000000000000000000000600052602260045260246000fd5b7f4e487b7100000000000000000000000000000000000000000000000000000000600052604160045260246000fd5b6000601f19601f8301169050919050565b7f547279696e6720746f207769746864726177206d6f7265206d6f6e657920746860008201527f616e2074686520636f6e7472616374206861732e000000000000000000000000602082015250565b7f4661696c656420746f207769746864726177206d6f6e65792066726f6d20636f60008201527f6e74726163740000000000000000000000000000000000000000000000000000602082015250565b50565b61111381610eea565b811461111e57600080fd5b5056fea2646970667358221220da64f637af3eaacb368b56df5d58653cd0b5a7cbca37b30b92d38a8a3cf08e1d64736f6c63430008040033",
  "linkReferences": {},
  "deployedLinkReferences": {}
}