{
  "_format": "hh-sol-artifact-1",
  "contractName": "WavePortal",
  "sourceName": "contracts/WavePortal.sol",
  "abi": [
    {
      "inputs": [],
      "stateMutability": "nonpayable",
      "type": "constructor"
    },
    {
      "inputs": [
        {
          "internalType": "address",
          "name": "",
          "type": "address"
        }
      ],
      "name": "addresses",
      "outputs": [
        {
          "internalType": "uint256",
          "name": "",
          "type": "uint256"
        }
      ],
      "stateMutability": "view",
      "type": "function"
    },
    {
      "inputs": [
        {
          "internalType": "address",
          "name": "sender",
          "type": "address"
        }
      ],
      "name": "getSenderTotalWaves",
      "outputs": [
        {
          "internalType": "uint256",
          "name": "",
          "type": "uint256"
        }
      ],
      "stateMutability": "view",
      "type": "function"
    },
    {
      "inputs": [],
      "name": "getTotalWaves",
      "outputs": [
        {
          "internalType": "uint256",
          "name": "",
          "type": "uint256"
        }
      ],
      "stateMutability": "view",
      "type": "function"
    },
    {
      "inputs": [],
      "name": "wave",
      "outputs": [],
      "stateMutability": "nonpayable",
      "type": "function"
    }
  ],
  "bytecode": "0x608060405234801561001057600080fd5b506100596040518060400160405280601e81526020017f57617665506f7274616c20636f6e7374727563746f722063616c6c65642e000081525061005e60201b61027a1760201c565b6101e1565b6100fa81604051602401610072919061015f565b6040516020818303038152906040527f41304fac000000000000000000000000000000000000000000000000000000007bffffffffffffffffffffffffffffffffffffffffffffffffffffffff19166020820180517bffffffffffffffffffffffffffffffffffffffffffffffffffffffff83818316178352505050506100fd60201b60201c565b50565b60008151905060006a636f6e736f6c652e6c6f679050602083016000808483855afa5050505050565b600061013182610181565b61013b818561018c565b935061014b81856020860161019d565b610154816101d0565b840191505092915050565b600060208201905081810360008301526101798184610126565b905092915050565b600081519050919050565b600082825260208201905092915050565b60005b838110156101bb5780820151818401526020810190506101a0565b838111156101ca576000848401525b50505050565b6000601f19601f8301169050919050565b6107f1806101f06000396000f3fe608060405234801561001057600080fd5b506004361061004c5760003560e01c80636fe15b441461005157806382d389541461005b5780639a2cdc081461008b578063fd866e8c146100a9575b600080fd5b6100596100d9565b005b61007560048036038101906100709190610528565b610189565b6040516100829190610668565b60405180910390f35b6100936101a1565b6040516100a09190610668565b60405180910390f35b6100c360048036038101906100be9190610528565b6101ec565b6040516100d09190610668565b60405180910390f35b60016000808282546100eb919061069f565b9250508190555060018060003373ffffffffffffffffffffffffffffffffffffffff1673ffffffffffffffffffffffffffffffffffffffff1681526020019081526020016000206000828254610141919061069f565b925050819055506101876040518060400160405280600d81526020017f257320686173207761766564210000000000000000000000000000000000000081525033610313565b565b60016020528060005260406000206000915090505481565b60006101e46040518060400160405280601781526020017f5765206861766520256420746f74616c207761766573210000000000000000008152506000546103af565b600054905090565b600080600160008473ffffffffffffffffffffffffffffffffffffffff1673ffffffffffffffffffffffffffffffffffffffff1681526020019081526020016000205490506102716040518060400160405280601781526020017f25732068617320776176656420256420617420796f752e000000000000000000815250848361044b565b80915050919050565b6103108160405160240161028e91906105a8565b6040516020818303038152906040527f41304fac000000000000000000000000000000000000000000000000000000007bffffffffffffffffffffffffffffffffffffffffffffffffffffffff19166020820180517bffffffffffffffffffffffffffffffffffffffffffffffffffffffff83818316178352505050506104ea565b50565b6103ab82826040516024016103299291906105ca565b6040516020818303038152906040527f319af333000000000000000000000000000000000000000000000000000000007bffffffffffffffffffffffffffffffffffffffffffffffffffffffff19166020820180517bffffffffffffffffffffffffffffffffffffffffffffffffffffffff83818316178352505050506104ea565b5050565b61044782826040516024016103c5929190610638565b6040516020818303038152906040527f9710a9d0000000000000000000000000000000000000000000000000000000007bffffffffffffffffffffffffffffffffffffffffffffffffffffffff19166020820180517bffffffffffffffffffffffffffffffffffffffffffffffffffffffff83818316178352505050506104ea565b5050565b6104e5838383604051602401610463939291906105fa565b6040516020818303038152906040527f07c81217000000000000000000000000000000000000000000000000000000007bffffffffffffffffffffffffffffffffffffffffffffffffffffffff19166020820180517bffffffffffffffffffffffffffffffffffffffffffffffffffffffff83818316178352505050506104ea565b505050565b60008151905060006a636f6e736f6c652e6c6f679050602083016000808483855afa5050505050565b600081359050610522816107a4565b92915050565b60006020828403121561053a57600080fd5b600061054884828501610513565b91505092915050565b61055a816106f5565b82525050565b600061056b82610683565b610575818561068e565b9350610585818560208601610731565b61058e81610793565b840191505092915050565b6105a281610727565b82525050565b600060208201905081810360008301526105c28184610560565b905092915050565b600060408201905081810360008301526105e48185610560565b90506105f36020830184610551565b9392505050565b600060608201905081810360008301526106148186610560565b90506106236020830185610551565b6106306040830184610599565b949350505050565b600060408201905081810360008301526106528185610560565b90506106616020830184610599565b9392505050565b600060208201905061067d6000830184610599565b92915050565b600081519050919050565b600082825260208201905092915050565b60006106aa82610727565b91506106b583610727565b9250827fffffffffffffffffffffffffffffffffffffffffffffffffffffffffffffffff038211156106ea576106e9610764565b5b828201905092915050565b600061070082610707565b9050919050565b600073ffffffffffffffffffffffffffffffffffffffff82169050919050565b6000819050919050565b60005b8381101561074f578082015181840152602081019050610734565b8381111561075e576000848401525b50505050565b7f4e487b7100000000000000000000000000000000000000000000000000000000600052601160045260246000fd5b6000601f19601f8301169050919050565b6107ad816106f5565b81146107b857600080fd5b5056fea26469706673582212206f85659400b9aea980dda632a964cfb6793e3e1746eeaf903cbe772651785e4064736f6c63430008040033",
  "linkReferences": {},
  "deployedLinkReferences": {}
}