{
  "_format": "hh-sol-artifact-1",
  "contractName": "WavePortal",
  "sourceName": "contracts/WavePortal.sol",
  "abi": [
    {
      "inputs": [],
      "stateMutability": "nonpayable",
      "type": "constructor"
    },
    {
      "anonymous": false,
      "inputs": [
        {
          "indexed": true,
          "internalType": "address",
          "name": "from",
          "type": "address"
        },
        {
          "indexed": false,
          "internalType": "uint256",
          "name": "timestamp",
          "type": "uint256"
        },
        {
          "indexed": false,
          "internalType": "string",
          "name": "message",
          "type": "string"
        }
      ],
      "name": "NewWave",
      "type": "event"
    },
    {
      "inputs": [
        {
          "internalType": "address",
          "name": "",
          "type": "address"
        }
      ],
      "name": "addresses",
      "outputs": [
        {
          "internalType": "uint256",
          "name": "",
          "type": "uint256"
        }
      ],
      "stateMutability": "view",
      "type": "function"
    },
    {
      "inputs": [],
      "name": "getAllWaves",
      "outputs": [
        {
          "components": [
            {
              "internalType": "address",
              "name": "waver",
              "type": "address"
            },
            {
              "internalType": "string",
              "name": "message",
              "type": "string"
            },
            {
              "internalType": "uint256",
              "name": "timestamp",
              "type": "uint256"
            }
          ],
          "internalType": "struct WavePortal.Wave[]",
          "name": "",
          "type": "tuple[]"
        }
      ],
      "stateMutability": "view",
      "type": "function"
    },
    {
      "inputs": [
        {
          "internalType": "address",
          "name": "sender",
          "type": "address"
        }
      ],
      "name": "getSenderTotalWaves",
      "outputs": [
        {
          "internalType": "uint256",
          "name": "",
          "type": "uint256"
        }
      ],
      "stateMutability": "view",
      "type": "function"
    },
    {
      "inputs": [],
      "name": "getTotalWaves",
      "outputs": [
        {
          "internalType": "uint256",
          "name": "",
          "type": "uint256"
        }
      ],
      "stateMutability": "view",
      "type": "function"
    },
    {
      "inputs": [
        {
          "internalType": "string",
          "name": "_message",
          "type": "string"
        }
      ],
      "name": "wave",
      "outputs": [],
      "stateMutability": "nonpayable",
      "type": "function"
    }
  ],
  "bytecode": "0x60806040523480156200001157600080fd5b506200005d6040518060400160405280601e81526020017f57617665506f7274616c20434f4e5354525543544f522043414c4c45442e00008152506200006360201b620005241760201c565b620001f7565b62000103816040516024016200007a919062000170565b6040516020818303038152906040527f41304fac000000000000000000000000000000000000000000000000000000007bffffffffffffffffffffffffffffffffffffffffffffffffffffffff19166020820180517bffffffffffffffffffffffffffffffffffffffffffffffffffffffff83818316178352505050506200010660201b60201c565b50565b60008151905060006a636f6e736f6c652e6c6f679050602083016000808483855afa5050505050565b60006200013c8262000194565b6200014881856200019f565b93506200015a818560208601620001b0565b6200016581620001e6565b840191505092915050565b600060208201905081810360008301526200018c81846200012f565b905092915050565b600081519050919050565b600082825260208201905092915050565b60005b83811015620001d0578082015181840152602081019050620001b3565b83811115620001e0576000848401525b50505050565b6000601f19601f8301169050919050565b610ef180620002076000396000f3fe608060405234801561001057600080fd5b50600436106100575760003560e01c8063449d46c01461005c57806382d38954146100785780639a2cdc08146100a8578063bd43a908146100c6578063fd866e8c146100e4575b600080fd5b61007660048036038101906100719190610909565b610114565b005b610092600480360381019061008d91906108e0565b6102e2565b60405161009f9190610bc8565b60405180910390f35b6100b06102fa565b6040516100bd9190610bc8565b60405180910390f35b6100ce610345565b6040516100db9190610ad1565b60405180910390f35b6100fe60048036038101906100f991906108e0565b610496565b60405161010b9190610bc8565b60405180910390f35b60016000808282546101269190610ccf565b9250508190555060018060003373ffffffffffffffffffffffffffffffffffffffff1673ffffffffffffffffffffffffffffffffffffffff168152602001908152602001600020600082825461017c9190610ccf565b925050819055506101c36040518060400160405280601681526020017f257320776176656420772f206d6573736167652025730000000000000000000081525033836105bd565b600260405180606001604052803373ffffffffffffffffffffffffffffffffffffffff16815260200183815260200142815250908060018154018082558091505060019003906000526020600020906003020160009091909190915060008201518160000160006101000a81548173ffffffffffffffffffffffffffffffffffffffff021916908373ffffffffffffffffffffffffffffffffffffffff16021790555060208201518160010190805190602001906102829291906107c0565b506040820151816002015550503373ffffffffffffffffffffffffffffffffffffffff167f5f7e16dc676677766a70e9c5628aa6c54ddb8b6e5188e2ae1e1f17f1ffbea71642836040516102d7929190610be3565b60405180910390a250565b60016020528060005260406000206000915090505481565b600061033d6040518060400160405280601781526020017f5765206861766520256420746f74616c2077617665732100000000000000000081525060005461065c565b600054905090565b60606002805480602002602001604051908101604052809291908181526020016000905b8282101561048d57838290600052602060002090600302016040518060600160405290816000820160009054906101000a900473ffffffffffffffffffffffffffffffffffffffff1673ffffffffffffffffffffffffffffffffffffffff1673ffffffffffffffffffffffffffffffffffffffff1681526020016001820180546103f290610da3565b80601f016020809104026020016040519081016040528092919081815260200182805461041e90610da3565b801561046b5780601f106104405761010080835404028352916020019161046b565b820191906000526020600020905b81548152906001019060200180831161044e57829003601f168201915b5050505050815260200160028201548152505081526020019060010190610369565b50505050905090565b600080600160008473ffffffffffffffffffffffffffffffffffffffff1673ffffffffffffffffffffffffffffffffffffffff16815260200190815260200160002054905061051b6040518060400160405280601781526020017f25732068617320776176656420256420617420796f752e00000000000000000081525084836106f8565b80915050919050565b6105ba816040516024016105389190610af3565b6040516020818303038152906040527f41304fac000000000000000000000000000000000000000000000000000000007bffffffffffffffffffffffffffffffffffffffffffffffffffffffff19166020820180517bffffffffffffffffffffffffffffffffffffffffffffffffffffffff8381831617835250505050610797565b50565b6106578383836040516024016105d593929190610b15565b6040516020818303038152906040527fe0e9ad4f000000000000000000000000000000000000000000000000000000007bffffffffffffffffffffffffffffffffffffffffffffffffffffffff19166020820180517bffffffffffffffffffffffffffffffffffffffffffffffffffffffff8381831617835250505050610797565b505050565b6106f48282604051602401610672929190610b98565b6040516020818303038152906040527f9710a9d0000000000000000000000000000000000000000000000000000000007bffffffffffffffffffffffffffffffffffffffffffffffffffffffff19166020820180517bffffffffffffffffffffffffffffffffffffffffffffffffffffffff8381831617835250505050610797565b5050565b61079283838360405160240161071093929190610b5a565b6040516020818303038152906040527f07c81217000000000000000000000000000000000000000000000000000000007bffffffffffffffffffffffffffffffffffffffffffffffffffffffff19166020820180517bffffffffffffffffffffffffffffffffffffffffffffffffffffffff8381831617835250505050610797565b505050565b60008151905060006a636f6e736f6c652e6c6f679050602083016000808483855afa5050505050565b8280546107cc90610da3565b90600052602060002090601f0160209004810192826107ee5760008555610835565b82601f1061080757805160ff1916838001178555610835565b82800160010185558215610835579182015b82811115610834578251825591602001919060010190610819565b5b5090506108429190610846565b5090565b5b8082111561085f576000816000905550600101610847565b5090565b600061087661087184610c38565b610c13565b90508281526020810184848401111561088e57600080fd5b610899848285610d61565b509392505050565b6000813590506108b081610ea4565b92915050565b600082601f8301126108c757600080fd5b81356108d7848260208601610863565b91505092915050565b6000602082840312156108f257600080fd5b6000610900848285016108a1565b91505092915050565b60006020828403121561091b57600080fd5b600082013567ffffffffffffffff81111561093557600080fd5b610941848285016108b6565b91505092915050565b60006109568383610a63565b905092915050565b61096781610d25565b82525050565b61097681610d25565b82525050565b600061098782610c79565b6109918185610c9c565b9350836020820285016109a385610c69565b8060005b858110156109df57848403895281516109c0858261094a565b94506109cb83610c8f565b925060208a019950506001810190506109a7565b50829750879550505050505092915050565b60006109fc82610c84565b610a068185610cad565b9350610a16818560208601610d70565b610a1f81610e93565b840191505092915050565b6000610a3582610c84565b610a3f8185610cbe565b9350610a4f818560208601610d70565b610a5881610e93565b840191505092915050565b6000606083016000830151610a7b600086018261095e565b5060208301518482036020860152610a9382826109f1565b9150506040830151610aa86040860182610ab3565b508091505092915050565b610abc81610d57565b82525050565b610acb81610d57565b82525050565b60006020820190508181036000830152610aeb818461097c565b905092915050565b60006020820190508181036000830152610b0d8184610a2a565b905092915050565b60006060820190508181036000830152610b2f8186610a2a565b9050610b3e602083018561096d565b8181036040830152610b508184610a2a565b9050949350505050565b60006060820190508181036000830152610b748186610a2a565b9050610b83602083018561096d565b610b906040830184610ac2565b949350505050565b60006040820190508181036000830152610bb28185610a2a565b9050610bc16020830184610ac2565b9392505050565b6000602082019050610bdd6000830184610ac2565b92915050565b6000604082019050610bf86000830185610ac2565b8181036020830152610c0a8184610a2a565b90509392505050565b6000610c1d610c2e565b9050610c298282610dd5565b919050565b6000604051905090565b600067ffffffffffffffff821115610c5357610c52610e64565b5b610c5c82610e93565b9050602081019050919050565b6000819050602082019050919050565b600081519050919050565b600081519050919050565b6000602082019050919050565b600082825260208201905092915050565b600082825260208201905092915050565b600082825260208201905092915050565b6000610cda82610d57565b9150610ce583610d57565b9250827fffffffffffffffffffffffffffffffffffffffffffffffffffffffffffffffff03821115610d1a57610d19610e06565b5b828201905092915050565b6000610d3082610d37565b9050919050565b600073ffffffffffffffffffffffffffffffffffffffff82169050919050565b6000819050919050565b82818337600083830152505050565b60005b83811015610d8e578082015181840152602081019050610d73565b83811115610d9d576000848401525b50505050565b60006002820490506001821680610dbb57607f821691505b60208210811415610dcf57610dce610e35565b5b50919050565b610dde82610e93565b810181811067ffffffffffffffff82111715610dfd57610dfc610e64565b5b80604052505050565b7f4e487b7100000000000000000000000000000000000000000000000000000000600052601160045260246000fd5b7f4e487b7100000000000000000000000000000000000000000000000000000000600052602260045260246000fd5b7f4e487b7100000000000000000000000000000000000000000000000000000000600052604160045260246000fd5b6000601f19601f8301169050919050565b610ead81610d25565b8114610eb857600080fd5b5056fea2646970667358221220ea636e21de70d7786ffba13dffb81f7d591ae533ca378b8e40692c268b05a9dc64736f6c63430008040033",
  "linkReferences": {},
  "deployedLinkReferences": {}
}