{
  "_format": "hh-sol-artifact-1",
  "contractName": "WavePortal",
  "sourceName": "contracts/WavePortal.sol",
  "abi": [
    {
      "inputs": [],
      "stateMutability": "payable",
      "type": "constructor"
    },
    {
      "anonymous": false,
      "inputs": [
        {
          "indexed": true,
          "internalType": "address",
          "name": "from",
          "type": "address"
        },
        {
          "indexed": false,
          "internalType": "uint256",
          "name": "timestamp",
          "type": "uint256"
        },
        {
          "indexed": false,
          "internalType": "string",
          "name": "message",
          "type": "string"
        }
      ],
      "name": "NewWave",
      "type": "event"
    },
    {
      "inputs": [
        {
          "internalType": "address",
          "name": "",
          "type": "address"
        }
      ],
      "name": "addresses",
      "outputs": [
        {
          "internalType": "uint256",
          "name": "",
          "type": "uint256"
        }
      ],
      "stateMutability": "view",
      "type": "function"
    },
    {
      "inputs": [],
      "name": "getAllWaves",
      "outputs": [
        {
          "components": [
            {
              "internalType": "address",
              "name": "waver",
              "type": "address"
            },
            {
              "internalType": "string",
              "name": "message",
              "type": "string"
            },
            {
              "internalType": "uint256",
              "name": "timestamp",
              "type": "uint256"
            }
          ],
          "internalType": "struct WavePortal.Wave[]",
          "name": "",
          "type": "tuple[]"
        }
      ],
      "stateMutability": "view",
      "type": "function"
    },
    {
      "inputs": [
        {
          "internalType": "address",
          "name": "sender",
          "type": "address"
        }
      ],
      "name": "getSenderTotalWaves",
      "outputs": [
        {
          "internalType": "uint256",
          "name": "",
          "type": "uint256"
        }
      ],
      "stateMutability": "view",
      "type": "function"
    },
    {
      "inputs": [],
      "name": "getTotalWaves",
      "outputs": [
        {
          "internalType": "uint256",
          "name": "",
          "type": "uint256"
        }
      ],
      "stateMutability": "view",
      "type": "function"
    },
    {
      "inputs": [
        {
          "internalType": "address",
          "name": "",
          "type": "address"
        }
      ],
      "name": "lastWavedAt",
      "outputs": [
        {
          "internalType": "uint256",
          "name": "",
          "type": "uint256"
        }
      ],
      "stateMutability": "view",
      "type": "function"
    },
    {
      "inputs": [
        {
          "internalType": "string",
          "name": "_message",
          "type": "string"
        }
      ],
      "name": "wave",
      "outputs": [],
      "stateMutability": "nonpayable",
      "type": "function"
    }
  ],
  "bytecode": "0x60806040526200004f6040518060400160405280601e81526020017f57617665506f7274616c20434f4e5354525543544f522043414c4c45442e00008152506200007760201b620007fb1760201c565b606442446200005f9190620001c4565b6200006b919062000261565b60008190555062000308565b62000117816040516024016200008e919062000184565b6040516020818303038152906040527f41304fac000000000000000000000000000000000000000000000000000000007bffffffffffffffffffffffffffffffffffffffffffffffffffffffff19166020820180517bffffffffffffffffffffffffffffffffffffffffffffffffffffffff83818316178352505050506200011a60201b60201c565b50565b60008151905060006a636f6e736f6c652e6c6f679050602083016000808483855afa5050505050565b60006200015082620001a8565b6200015c8185620001b3565b93506200016e8185602086016200022b565b6200017981620002f7565b840191505092915050565b60006020820190508181036000830152620001a0818462000143565b905092915050565b600081519050919050565b600082825260208201905092915050565b6000620001d18262000221565b9150620001de8362000221565b9250827fffffffffffffffffffffffffffffffffffffffffffffffffffffffffffffffff0382111562000216576200021562000299565b5b828201905092915050565b6000819050919050565b60005b838110156200024b5780820151818401526020810190506200022e565b838111156200025b576000848401525b50505050565b60006200026e8262000221565b91506200027b8362000221565b9250826200028e576200028d620002c8565b5b828206905092915050565b7f4e487b7100000000000000000000000000000000000000000000000000000000600052601160045260246000fd5b7f4e487b7100000000000000000000000000000000000000000000000000000000600052601260045260246000fd5b6000601f19601f8301169050919050565b6114ca80620003186000396000f3fe608060405234801561001057600080fd5b50600436106100625760003560e01c8063449d46c01461006757806382d38954146100835780639a2cdc08146100b3578063a42a4663146100d1578063bd43a90814610101578063fd866e8c1461011f575b600080fd5b610081600480360381019061007c9190610c7c565b61014f565b005b61009d60048036038101906100989190610c53565b6105a1565b6040516100aa919061106c565b60405180910390f35b6100bb6105b9565b6040516100c8919061106c565b60405180910390f35b6100eb60048036038101906100e69190610c53565b610604565b6040516100f8919061106c565b60405180910390f35b61010961061c565b6040516101169190610ee5565b60405180910390f35b61013960048036038101906101349190610c53565b61076d565b604051610146919061106c565b60405180910390f35b42601e600360003373ffffffffffffffffffffffffffffffffffffffff1673ffffffffffffffffffffffffffffffffffffffff1681526020019081526020016000205461019c919061117e565b106101dc576040517f08c379a00000000000000000000000000000000000000000000000000000000081526004016101d39061102c565b60405180910390fd5b42600360003373ffffffffffffffffffffffffffffffffffffffff1673ffffffffffffffffffffffffffffffffffffffff168152602001908152602001600020819055506001806000828254610232919061117e565b925050819055506001600260003373ffffffffffffffffffffffffffffffffffffffff1673ffffffffffffffffffffffffffffffffffffffff1681526020019081526020016000206000828254610289919061117e565b925050819055506102d06040518060400160405280601681526020017f257320776176656420772f206d657373616765202573000000000000000000008152503383610894565b600460405180606001604052803373ffffffffffffffffffffffffffffffffffffffff16815260200183815260200142815250908060018154018082558091505060019003906000526020600020906003020160009091909190915060008201518160000160006101000a81548173ffffffffffffffffffffffffffffffffffffffff021916908373ffffffffffffffffffffffffffffffffffffffff160217905550602082015181600101908051906020019061038f929190610b33565b50604082015181600201555050606460005442446103ad919061117e565b6103b7919061117e565b6103c191906112b5565b6000819055506104086040518060400160405280601681526020017f52616e646f6d20232067656e6572617465643a20256400000000000000000000815250600054610933565b60016000541161054e576104516040518060400160405280600781526020017f257320776f6e2100000000000000000000000000000000000000000000000000815250336109cf565b6000655af3107a400090504781111561049f576040517f08c379a00000000000000000000000000000000000000000000000000000000081526004016104969061100c565b60405180910390fd5b60003373ffffffffffffffffffffffffffffffffffffffff16826040516104c590610ed0565b60006040518083038185875af1925050503d8060008114610502576040519150601f19603f3d011682016040523d82523d6000602084013e610507565b606091505b505090508061054b576040517f08c379a00000000000000000000000000000000000000000000000000000000081526004016105429061104c565b60405180910390fd5b50505b3373ffffffffffffffffffffffffffffffffffffffff167f5f7e16dc676677766a70e9c5628aa6c54ddb8b6e5188e2ae1e1f17f1ffbea7164283604051610596929190611087565b60405180910390a250565b60026020528060005260406000206000915090505481565b60006105fc6040518060400160405280601781526020017f5765206861766520256420746f74616c20776176657321000000000000000000815250600154610933565b600154905090565b60036020528060005260406000206000915090505481565b60606004805480602002602001604051908101604052809291908181526020016000905b8282101561076457838290600052602060002090600302016040518060600160405290816000820160009054906101000a900473ffffffffffffffffffffffffffffffffffffffff1673ffffffffffffffffffffffffffffffffffffffff1673ffffffffffffffffffffffffffffffffffffffff1681526020016001820180546106c990611252565b80601f01602080910402602001604051908101604052809291908181526020018280546106f590611252565b80156107425780601f1061071757610100808354040283529160200191610742565b820191906000526020600020905b81548152906001019060200180831161072557829003601f168201915b5050505050815260200160028201548152505081526020019060010190610640565b50505050905090565b600080600260008473ffffffffffffffffffffffffffffffffffffffff1673ffffffffffffffffffffffffffffffffffffffff1681526020019081526020016000205490506107f26040518060400160405280601781526020017f25732068617320776176656420256420617420796f752e0000000000000000008152508483610a6b565b80915050919050565b6108918160405160240161080f9190610f07565b6040516020818303038152906040527f41304fac000000000000000000000000000000000000000000000000000000007bffffffffffffffffffffffffffffffffffffffffffffffffffffffff19166020820180517bffffffffffffffffffffffffffffffffffffffffffffffffffffffff8381831617835250505050610b0a565b50565b61092e8383836040516024016108ac93929190610f59565b6040516020818303038152906040527fe0e9ad4f000000000000000000000000000000000000000000000000000000007bffffffffffffffffffffffffffffffffffffffffffffffffffffffff19166020820180517bffffffffffffffffffffffffffffffffffffffffffffffffffffffff8381831617835250505050610b0a565b505050565b6109cb8282604051602401610949929190610fdc565b6040516020818303038152906040527f9710a9d0000000000000000000000000000000000000000000000000000000007bffffffffffffffffffffffffffffffffffffffffffffffffffffffff19166020820180517bffffffffffffffffffffffffffffffffffffffffffffffffffffffff8381831617835250505050610b0a565b5050565b610a6782826040516024016109e5929190610f29565b6040516020818303038152906040527f319af333000000000000000000000000000000000000000000000000000000007bffffffffffffffffffffffffffffffffffffffffffffffffffffffff19166020820180517bffffffffffffffffffffffffffffffffffffffffffffffffffffffff8381831617835250505050610b0a565b5050565b610b05838383604051602401610a8393929190610f9e565b6040516020818303038152906040527f07c81217000000000000000000000000000000000000000000000000000000007bffffffffffffffffffffffffffffffffffffffffffffffffffffffff19166020820180517bffffffffffffffffffffffffffffffffffffffffffffffffffffffff8381831617835250505050610b0a565b505050565b60008151905060006a636f6e736f6c652e6c6f679050602083016000808483855afa5050505050565b828054610b3f90611252565b90600052602060002090601f016020900481019282610b615760008555610ba8565b82601f10610b7a57805160ff1916838001178555610ba8565b82800160010185558215610ba8579182015b82811115610ba7578251825591602001919060010190610b8c565b5b509050610bb59190610bb9565b5090565b5b80821115610bd2576000816000905550600101610bba565b5090565b6000610be9610be4846110dc565b6110b7565b905082815260208101848484011115610c0157600080fd5b610c0c848285611210565b509392505050565b600081359050610c238161147d565b92915050565b600082601f830112610c3a57600080fd5b8135610c4a848260208601610bd6565b91505092915050565b600060208284031215610c6557600080fd5b6000610c7384828501610c14565b91505092915050565b600060208284031215610c8e57600080fd5b600082013567ffffffffffffffff811115610ca857600080fd5b610cb484828501610c29565b91505092915050565b6000610cc98383610e62565b905092915050565b610cda816111d4565b82525050565b610ce9816111d4565b82525050565b6000610cfa8261111d565b610d048185611140565b935083602082028501610d168561110d565b8060005b85811015610d525784840389528151610d338582610cbd565b9450610d3e83611133565b925060208a01995050600181019050610d1a565b50829750879550505050505092915050565b6000610d6f82611128565b610d79818561115c565b9350610d8981856020860161121f565b610d92816113a2565b840191505092915050565b6000610da882611128565b610db2818561116d565b9350610dc281856020860161121f565b610dcb816113a2565b840191505092915050565b6000610de360348361116d565b9150610dee826113b3565b604082019050919050565b6000610e0660088361116d565b9150610e1182611402565b602082019050919050565b6000610e2960268361116d565b9150610e348261142b565b604082019050919050565b6000610e4c600083611151565b9150610e578261147a565b600082019050919050565b6000606083016000830151610e7a6000860182610cd1565b5060208301518482036020860152610e928282610d64565b9150506040830151610ea76040860182610eb2565b508091505092915050565b610ebb81611206565b82525050565b610eca81611206565b82525050565b6000610edb82610e3f565b9150819050919050565b60006020820190508181036000830152610eff8184610cef565b905092915050565b60006020820190508181036000830152610f218184610d9d565b905092915050565b60006040820190508181036000830152610f438185610d9d565b9050610f526020830184610ce0565b9392505050565b60006060820190508181036000830152610f738186610d9d565b9050610f826020830185610ce0565b8181036040830152610f948184610d9d565b9050949350505050565b60006060820190508181036000830152610fb88186610d9d565b9050610fc76020830185610ce0565b610fd46040830184610ec1565b949350505050565b60006040820190508181036000830152610ff68185610d9d565b90506110056020830184610ec1565b9392505050565b6000602082019050818103600083015261102581610dd6565b9050919050565b6000602082019050818103600083015261104581610df9565b9050919050565b6000602082019050818103600083015261106581610e1c565b9050919050565b60006020820190506110816000830184610ec1565b92915050565b600060408201905061109c6000830185610ec1565b81810360208301526110ae8184610d9d565b90509392505050565b60006110c16110d2565b90506110cd8282611284565b919050565b6000604051905090565b600067ffffffffffffffff8211156110f7576110f6611373565b5b611100826113a2565b9050602081019050919050565b6000819050602082019050919050565b600081519050919050565b600081519050919050565b6000602082019050919050565b600082825260208201905092915050565b600081905092915050565b600082825260208201905092915050565b600082825260208201905092915050565b600061118982611206565b915061119483611206565b9250827fffffffffffffffffffffffffffffffffffffffffffffffffffffffffffffffff038211156111c9576111c86112e6565b5b828201905092915050565b60006111df826111e6565b9050919050565b600073ffffffffffffffffffffffffffffffffffffffff82169050919050565b6000819050919050565b82818337600083830152505050565b60005b8381101561123d578082015181840152602081019050611222565b8381111561124c576000848401525b50505050565b6000600282049050600182168061126a57607f821691505b6020821081141561127e5761127d611344565b5b50919050565b61128d826113a2565b810181811067ffffffffffffffff821117156112ac576112ab611373565b5b80604052505050565b60006112c082611206565b91506112cb83611206565b9250826112db576112da611315565b5b828206905092915050565b7f4e487b7100000000000000000000000000000000000000000000000000000000600052601160045260246000fd5b7f4e487b7100000000000000000000000000000000000000000000000000000000600052601260045260246000fd5b7f4e487b7100000000000000000000000000000000000000000000000000000000600052602260045260246000fd5b7f4e487b7100000000000000000000000000000000000000000000000000000000600052604160045260246000fd5b6000601f19601f8301169050919050565b7f547279696e6720746f207769746864726177206d6f7265206d6f6e657920746860008201527f616e2074686520636f6e7472616374206861732e000000000000000000000000602082015250565b7f5761697420333073000000000000000000000000000000000000000000000000600082015250565b7f4661696c656420746f207769746864726177206d6f6e65792066726f6d20636f60008201527f6e74726163740000000000000000000000000000000000000000000000000000602082015250565b50565b611486816111d4565b811461149157600080fd5b5056fea2646970667358221220f897468e899f4f1364f6cded3e2d1e4a8c3a60dd9d74c063512b07782cd4fd8f64736f6c63430008040033",
  "linkReferences": {},
  "deployedLinkReferences": {}
}