{
  "_format": "hh-sol-artifact-1",
  "contractName": "WavePortal",
  "sourceName": "contracts/WavePortal.sol",
  "abi": [
    {
      "inputs": [],
      "stateMutability": "payable",
      "type": "constructor"
    },
    {
      "anonymous": false,
      "inputs": [
        {
          "indexed": true,
          "internalType": "address",
          "name": "from",
          "type": "address"
        },
        {
          "indexed": false,
          "internalType": "uint256",
          "name": "timestamp",
          "type": "uint256"
        },
        {
          "indexed": false,
          "internalType": "string",
          "name": "message",
          "type": "string"
        }
      ],
      "name": "NewWave",
      "type": "event"
    },
    {
      "inputs": [
        {
          "internalType": "address",
          "name": "",
          "type": "address"
        }
      ],
      "name": "addresses",
      "outputs": [
        {
          "internalType": "uint256",
          "name": "",
          "type": "uint256"
        }
      ],
      "stateMutability": "view",
      "type": "function"
    },
    {
      "inputs": [],
      "name": "getAllWaves",
      "outputs": [
        {
          "components": [
            {
              "internalType": "address",
              "name": "waver",
              "type": "address"
            },
            {
              "internalType": "string",
              "name": "message",
              "type": "string"
            },
            {
              "internalType": "uint256",
              "name": "timestamp",
              "type": "uint256"
            }
          ],
          "internalType": "struct WavePortal.Wave[]",
          "name": "",
          "type": "tuple[]"
        }
      ],
      "stateMutability": "view",
      "type": "function"
    },
    {
      "inputs": [
        {
          "internalType": "address",
          "name": "sender",
          "type": "address"
        }
      ],
      "name": "getSenderTotalWaves",
      "outputs": [
        {
          "internalType": "uint256",
          "name": "",
          "type": "uint256"
        }
      ],
      "stateMutability": "view",
      "type": "function"
    },
    {
      "inputs": [],
      "name": "getTotalWaves",
      "outputs": [
        {
          "internalType": "uint256",
          "name": "",
          "type": "uint256"
        }
      ],
      "stateMutability": "view",
      "type": "function"
    },
    {
      "inputs": [
        {
          "internalType": "address",
          "name": "",
          "type": "address"
        }
      ],
      "name": "lastWavedAt",
      "outputs": [
        {
          "internalType": "uint256",
          "name": "",
          "type": "uint256"
        }
      ],
      "stateMutability": "view",
      "type": "function"
    },
    {
      "inputs": [
        {
          "internalType": "string",
          "name": "_message",
          "type": "string"
        }
      ],
      "name": "wave",
      "outputs": [],
      "stateMutability": "nonpayable",
      "type": "function"
    }
  ],
  "bytecode": "0x60806040526200004f6040518060400160405280601e81526020017f57617665506f7274616c20434f4e5354525543544f522043414c4c45442e00008152506200007760201b620007fc1760201c565b606442446200005f9190620001c4565b6200006b919062000261565b60008190555062000308565b62000117816040516024016200008e919062000184565b6040516020818303038152906040527f41304fac000000000000000000000000000000000000000000000000000000007bffffffffffffffffffffffffffffffffffffffffffffffffffffffff19166020820180517bffffffffffffffffffffffffffffffffffffffffffffffffffffffff83818316178352505050506200011a60201b60201c565b50565b60008151905060006a636f6e736f6c652e6c6f679050602083016000808483855afa5050505050565b60006200015082620001a8565b6200015c8185620001b3565b93506200016e8185602086016200022b565b6200017981620002f7565b840191505092915050565b60006020820190508181036000830152620001a0818462000143565b905092915050565b600081519050919050565b600082825260208201905092915050565b6000620001d18262000221565b9150620001de8362000221565b9250827fffffffffffffffffffffffffffffffffffffffffffffffffffffffffffffffff0382111562000216576200021562000299565b5b828201905092915050565b6000819050919050565b60005b838110156200024b5780820151818401526020810190506200022e565b838111156200025b576000848401525b50505050565b60006200026e8262000221565b91506200027b8362000221565b9250826200028e576200028d620002c8565b5b828206905092915050565b7f4e487b7100000000000000000000000000000000000000000000000000000000600052601160045260246000fd5b7f4e487b7100000000000000000000000000000000000000000000000000000000600052601260045260246000fd5b6000601f19601f8301169050919050565b6114cb80620003186000396000f3fe608060405234801561001057600080fd5b50600436106100625760003560e01c8063449d46c01461006757806382d38954146100835780639a2cdc08146100b3578063a42a4663146100d1578063bd43a90814610101578063fd866e8c1461011f575b600080fd5b610081600480360381019061007c9190610c7d565b61014f565b005b61009d60048036038101906100989190610c54565b6105a2565b6040516100aa919061106d565b60405180910390f35b6100bb6105ba565b6040516100c8919061106d565b60405180910390f35b6100eb60048036038101906100e69190610c54565b610605565b6040516100f8919061106d565b60405180910390f35b61010961061d565b6040516101169190610ee6565b60405180910390f35b61013960048036038101906101349190610c54565b61076e565b604051610146919061106d565b60405180910390f35b42610384600360003373ffffffffffffffffffffffffffffffffffffffff1673ffffffffffffffffffffffffffffffffffffffff1681526020019081526020016000205461019d919061117f565b106101dd576040517f08c379a00000000000000000000000000000000000000000000000000000000081526004016101d49061104d565b60405180910390fd5b42600360003373ffffffffffffffffffffffffffffffffffffffff1673ffffffffffffffffffffffffffffffffffffffff168152602001908152602001600020819055506001806000828254610233919061117f565b925050819055506001600260003373ffffffffffffffffffffffffffffffffffffffff1673ffffffffffffffffffffffffffffffffffffffff168152602001908152602001600020600082825461028a919061117f565b925050819055506102d16040518060400160405280601681526020017f257320776176656420772f206d657373616765202573000000000000000000008152503383610895565b600460405180606001604052803373ffffffffffffffffffffffffffffffffffffffff16815260200183815260200142815250908060018154018082558091505060019003906000526020600020906003020160009091909190915060008201518160000160006101000a81548173ffffffffffffffffffffffffffffffffffffffff021916908373ffffffffffffffffffffffffffffffffffffffff1602179055506020820151816001019080519060200190610390929190610b34565b50604082015181600201555050606460005442446103ae919061117f565b6103b8919061117f565b6103c291906112b6565b6000819055506104096040518060400160405280601681526020017f52616e646f6d20232067656e6572617465643a20256400000000000000000000815250600054610934565b60016000541161054f576104526040518060400160405280600781526020017f257320776f6e2100000000000000000000000000000000000000000000000000815250336109d0565b6000655af3107a40009050478111156104a0576040517f08c379a00000000000000000000000000000000000000000000000000000000081526004016104979061100d565b60405180910390fd5b60003373ffffffffffffffffffffffffffffffffffffffff16826040516104c690610ed1565b60006040518083038185875af1925050503d8060008114610503576040519150601f19603f3d011682016040523d82523d6000602084013e610508565b606091505b505090508061054c576040517f08c379a00000000000000000000000000000000000000000000000000000000081526004016105439061102d565b60405180910390fd5b50505b3373ffffffffffffffffffffffffffffffffffffffff167f5f7e16dc676677766a70e9c5628aa6c54ddb8b6e5188e2ae1e1f17f1ffbea7164283604051610597929190611088565b60405180910390a250565b60026020528060005260406000206000915090505481565b60006105fd6040518060400160405280601781526020017f5765206861766520256420746f74616c20776176657321000000000000000000815250600154610934565b600154905090565b60036020528060005260406000206000915090505481565b60606004805480602002602001604051908101604052809291908181526020016000905b8282101561076557838290600052602060002090600302016040518060600160405290816000820160009054906101000a900473ffffffffffffffffffffffffffffffffffffffff1673ffffffffffffffffffffffffffffffffffffffff1673ffffffffffffffffffffffffffffffffffffffff1681526020016001820180546106ca90611253565b80601f01602080910402602001604051908101604052809291908181526020018280546106f690611253565b80156107435780601f1061071857610100808354040283529160200191610743565b820191906000526020600020905b81548152906001019060200180831161072657829003601f168201915b5050505050815260200160028201548152505081526020019060010190610641565b50505050905090565b600080600260008473ffffffffffffffffffffffffffffffffffffffff1673ffffffffffffffffffffffffffffffffffffffff1681526020019081526020016000205490506107f36040518060400160405280601781526020017f25732068617320776176656420256420617420796f752e0000000000000000008152508483610a6c565b80915050919050565b610892816040516024016108109190610f08565b6040516020818303038152906040527f41304fac000000000000000000000000000000000000000000000000000000007bffffffffffffffffffffffffffffffffffffffffffffffffffffffff19166020820180517bffffffffffffffffffffffffffffffffffffffffffffffffffffffff8381831617835250505050610b0b565b50565b61092f8383836040516024016108ad93929190610f5a565b6040516020818303038152906040527fe0e9ad4f000000000000000000000000000000000000000000000000000000007bffffffffffffffffffffffffffffffffffffffffffffffffffffffff19166020820180517bffffffffffffffffffffffffffffffffffffffffffffffffffffffff8381831617835250505050610b0b565b505050565b6109cc828260405160240161094a929190610fdd565b6040516020818303038152906040527f9710a9d0000000000000000000000000000000000000000000000000000000007bffffffffffffffffffffffffffffffffffffffffffffffffffffffff19166020820180517bffffffffffffffffffffffffffffffffffffffffffffffffffffffff8381831617835250505050610b0b565b5050565b610a6882826040516024016109e6929190610f2a565b6040516020818303038152906040527f319af333000000000000000000000000000000000000000000000000000000007bffffffffffffffffffffffffffffffffffffffffffffffffffffffff19166020820180517bffffffffffffffffffffffffffffffffffffffffffffffffffffffff8381831617835250505050610b0b565b5050565b610b06838383604051602401610a8493929190610f9f565b6040516020818303038152906040527f07c81217000000000000000000000000000000000000000000000000000000007bffffffffffffffffffffffffffffffffffffffffffffffffffffffff19166020820180517bffffffffffffffffffffffffffffffffffffffffffffffffffffffff8381831617835250505050610b0b565b505050565b60008151905060006a636f6e736f6c652e6c6f679050602083016000808483855afa5050505050565b828054610b4090611253565b90600052602060002090601f016020900481019282610b625760008555610ba9565b82601f10610b7b57805160ff1916838001178555610ba9565b82800160010185558215610ba9579182015b82811115610ba8578251825591602001919060010190610b8d565b5b509050610bb69190610bba565b5090565b5b80821115610bd3576000816000905550600101610bbb565b5090565b6000610bea610be5846110dd565b6110b8565b905082815260208101848484011115610c0257600080fd5b610c0d848285611211565b509392505050565b600081359050610c248161147e565b92915050565b600082601f830112610c3b57600080fd5b8135610c4b848260208601610bd7565b91505092915050565b600060208284031215610c6657600080fd5b6000610c7484828501610c15565b91505092915050565b600060208284031215610c8f57600080fd5b600082013567ffffffffffffffff811115610ca957600080fd5b610cb584828501610c2a565b91505092915050565b6000610cca8383610e63565b905092915050565b610cdb816111d5565b82525050565b610cea816111d5565b82525050565b6000610cfb8261111e565b610d058185611141565b935083602082028501610d178561110e565b8060005b85811015610d535784840389528151610d348582610cbe565b9450610d3f83611134565b925060208a01995050600181019050610d1b565b50829750879550505050505092915050565b6000610d7082611129565b610d7a818561115d565b9350610d8a818560208601611220565b610d93816113a3565b840191505092915050565b6000610da982611129565b610db3818561116e565b9350610dc3818560208601611220565b610dcc816113a3565b840191505092915050565b6000610de460348361116e565b9150610def826113b4565b604082019050919050565b6000610e0760268361116e565b9150610e1282611403565b604082019050919050565b6000610e2a600083611152565b9150610e3582611452565b600082019050919050565b6000610e4d60088361116e565b9150610e5882611455565b602082019050919050565b6000606083016000830151610e7b6000860182610cd2565b5060208301518482036020860152610e938282610d65565b9150506040830151610ea86040860182610eb3565b508091505092915050565b610ebc81611207565b82525050565b610ecb81611207565b82525050565b6000610edc82610e1d565b9150819050919050565b60006020820190508181036000830152610f008184610cf0565b905092915050565b60006020820190508181036000830152610f228184610d9e565b905092915050565b60006040820190508181036000830152610f448185610d9e565b9050610f536020830184610ce1565b9392505050565b60006060820190508181036000830152610f748186610d9e565b9050610f836020830185610ce1565b8181036040830152610f958184610d9e565b9050949350505050565b60006060820190508181036000830152610fb98186610d9e565b9050610fc86020830185610ce1565b610fd56040830184610ec2565b949350505050565b60006040820190508181036000830152610ff78185610d9e565b90506110066020830184610ec2565b9392505050565b6000602082019050818103600083015261102681610dd7565b9050919050565b6000602082019050818103600083015261104681610dfa565b9050919050565b6000602082019050818103600083015261106681610e40565b9050919050565b60006020820190506110826000830184610ec2565b92915050565b600060408201905061109d6000830185610ec2565b81810360208301526110af8184610d9e565b90509392505050565b60006110c26110d3565b90506110ce8282611285565b919050565b6000604051905090565b600067ffffffffffffffff8211156110f8576110f7611374565b5b611101826113a3565b9050602081019050919050565b6000819050602082019050919050565b600081519050919050565b600081519050919050565b6000602082019050919050565b600082825260208201905092915050565b600081905092915050565b600082825260208201905092915050565b600082825260208201905092915050565b600061118a82611207565b915061119583611207565b9250827fffffffffffffffffffffffffffffffffffffffffffffffffffffffffffffffff038211156111ca576111c96112e7565b5b828201905092915050565b60006111e0826111e7565b9050919050565b600073ffffffffffffffffffffffffffffffffffffffff82169050919050565b6000819050919050565b82818337600083830152505050565b60005b8381101561123e578082015181840152602081019050611223565b8381111561124d576000848401525b50505050565b6000600282049050600182168061126b57607f821691505b6020821081141561127f5761127e611345565b5b50919050565b61128e826113a3565b810181811067ffffffffffffffff821117156112ad576112ac611374565b5b80604052505050565b60006112c182611207565b91506112cc83611207565b9250826112dc576112db611316565b5b828206905092915050565b7f4e487b7100000000000000000000000000000000000000000000000000000000600052601160045260246000fd5b7f4e487b7100000000000000000000000000000000000000000000000000000000600052601260045260246000fd5b7f4e487b7100000000000000000000000000000000000000000000000000000000600052602260045260246000fd5b7f4e487b7100000000000000000000000000000000000000000000000000000000600052604160045260246000fd5b6000601f19601f8301169050919050565b7f547279696e6720746f207769746864726177206d6f7265206d6f6e657920746860008201527f616e2074686520636f6e7472616374206861732e000000000000000000000000602082015250565b7f4661696c656420746f207769746864726177206d6f6e65792066726f6d20636f60008201527f6e74726163740000000000000000000000000000000000000000000000000000602082015250565b50565b7f576169742031356d000000000000000000000000000000000000000000000000600082015250565b611487816111d5565b811461149257600080fd5b5056fea264697066735822122038b2ff80eae3f59b1a0f310089304b948d9a8f0846f9045147cf4498394999c464736f6c63430008040033",
  "linkReferences": {},
  "deployedLinkReferences": {}
}